:10000000A0C1BAC1B9C1B8C1B7C1B6C1C1C3B4C139
:10001000B3C1B2C1B1C1B0C1AFC1AEC1ADC1ACC15C
:10002000ABC1AAC1A9C1A8C1A7C10A0D2A2A2A2AFF
:100030002A2A2A2A2A2A2A2A2A2A2A2A2A2A2A2A20
:100040002A2A2A2A2A2A2A2A2A2A2A2A2A2A2A2A10
:100050002A2A2A2A2A2A2A2A2A2A2A2A2A2A2A2A00
:100060000A0D000A0D2020202020202020204C6591
:10007000616B204465746563746F722069732073CB
:100080007461727465642E20562E302E312E30200D
:1000900020202020202020202020202020000A0DA9
:1000A0000A0D2A2A2A2A2A2A2A2A2A2A2A2A2A2AED
:1000B0002A2A2A2A2A2A2A2A2A2A2A2A2A2A2A2AA0
:1000C0002A2A2A2A2A2A2A2A2A2A2A2A2A2A2A2A90
:1000D0002A2A2A2A2A2A000A0D4572726F7220647F
:1000E0006574656374656421000A0D56616C7665FC
:1000F00020636C6F73696E672074696D656F7574CA
:1001000021000A0D56616C766520697320636C6F5F
:1001100073696E6721000A0D56616C7665206F70F9
:10012000656E696E672074696D656F757421000A6C
:100130000D56616C766520697320636C6F7365641E
:1001400021000A0D53544154455F4F50454E3A200B
:1001500056616C7665206973206F70656E656421E9
:10016000000A0D4C65616B20636C656172656421EA
:10017000000A0D4C65616B20646574656374656489
:1001800021000A0D53544152543A2056616C766551
:1001900020676F20746F206F70656E21000A0D5309
:1001A000544152543A2056616C766520676F207432
:1001B0006F20636C6F736521000A0D5354415254D4
:1001C0003A204E6F206F7065726174696F6E206E99
:1001D000656564656421000A0D53797374656D204B
:1001E0007374617274656421000A0D436C6F7369E6
:1001F0006E67207468652076616C76652E000A0D46
:1002000056616C766520697320616C7265616479F2
:1002100020636C6F7365642E000A0D4F70656E6904
:100220006E67207468652076616C76652E000A0D15
:1002300056616C766520697320616C7265616479C2
:10024000206F70656E65642E000A0D4F70656E69D3
:100250006E67207468652076616C76652E000A0DE5
:100260004C65616B61676520636C656172656421D3
:10027000000A0D436C6F73696E67207468652076A1
:10028000616C76652E000A0D4C65616B61676520B7
:10029000646574656374656421000A0D2D3E5661C2
:1002A0006C766520697320636C6F7365642E000A39
:1002B0000D2D3E56616C7665206973206F70656EFA
:1002C00065642E000A0D352D74682073656E736F9A
:1002D00072206973206163746976652E000A0D349B
:1002E0002D74682073656E736F722069732061636B
:1002F000746976652E000A0D332D72642073656E65
:10030000736F72206973206163746976652E000AC9
:100310000D322D74682073656E736F7220697320BF
:100320006163746976652E000A0D312D7374207334
:10033000656E736F72206973206163746976652ED0
:10034000000011241FBECFE5D2E0DEBFCDBF10E01C
:10035000A0E6B0E0EEE3F8E002C005900D92A23A0C
:10036000B107D9F720E0A2EAB0E001C01D92AF3A90
:10037000B207E1F77FD156C243CE14BA8FEF85BBE7
:1003800081B38F6381BB82B382BB08951BBA1ABA53
:100390000895F894FBDF2BD215BE1BBE19BEE8C131
:1003A000CF93DF93EC01888180FD03C088E293E066
:1003B0002CD2888181FD45C08FE093E026D281E078
:1003C00080936800888182FD3FC086EF92E01DD255
:1003D00081E080936B00888183FD39C08DED92E0D0
:1003E00014D281E080936E00888184FD33C084EC58
:1003F00092E00BD281E080937100888185FD0EC070
:100400008091610090916200019741F08FEA92E043
:10041000FCD181E08093610010926200888186FDAA
:100420000DC08091610090916200892B39F08AE9BA
:1004300092E0EBD11092610010926200DF91CF91B7
:10044000089510926800BECF10926B00C4CF109236
:100450006E00CACF10927100D0CF809168008111D8
:1004600010C080916B0081110CC080916E008111D1
:1004700008C080917100811104C0809174008115C1
:10048000D9F086E892E0C1D181E08093A600809106
:10049000610090916200892B61F1809175009091CB
:1004A0007600059731F181E792E0AFD18AE0809341
:1004B00075001092760008958091A6008115C9F00C
:1004C0008EE592E0A2D18091610090916200019747
:1004D00071F08091750090917600039741F089E466
:1004E00092E093D189E0809375001092760010928B
:1004F000A60008958091610090916200019719F41F
:100500008EE292E082C181E0ECD081E08093A50090
:1005100022E0209361001092620023E02093750096
:10052000109276008093A40089E192E0EBCF809155
:10053000610090916200892B19F48EEF91E065C102
:1005400080E0CFD01092A50083E0809361001092EC
:10055000620085E0809375001092760081E08093C0
:10056000A40089EE91E0EBCFE0917500F091760068
:10057000EB30F10508F07DC0EC5EFB4F099487ED90
:1005800091E043D18091610090916200019761F404
:100590008091A600811108C089EB91E036D11092BC
:1005A00075001092760008958091A600811549F09B
:1005B0008DE991E02AD18AE080937500109276004F
:1005C000089582E891E021D189E0F6CF8EE219D139
:1005D00082E38093770010927800089581E791E09C
:1005E000DDCF81E691E011D185DFD9CF82E491E0C2
:1005F0000CD180DF83E0E0CF8FE291E006D197DF7E
:1006000085E0DACF8091610090916200019721F43A
:100610008091A5007BD0C3CF809177009091780026
:1006200001978093770090937800892B11F586E1EC
:1006300091E0EBD088E0C0CF82E091E0E6D08091FD
:10064000610090916200892B19F38091770090915D
:10065000780001978093770090937800892B49F474
:1006600089EE90E0E6CF87ED90E0CFD08091A500B5
:100670004DC008958EDE81DE5DD08EE990E0C5D05C
:1006800083E690E0C2D08AE290E0BFD078941092E6
:10069000A2001092A30014BA8FEF85BB1092A6009F
:1006A0009AD02091A7003091A8004091A9005091C4
:1006B000AA00621B730B840B950B683C71058105C6
:1006C000910570F388D06093A7007093A800809381
:1006D000A9009093AA0083E390E062DEBEDE44DFCF
:1006E000DFCF883090F495E0899FF0011124E7581E
:1006F000FF4FA281B3812C91348181E001C0880F2A
:100700003A95EAF7809582238C930895883088F48F
:1007100095E0899FF0011124E758FF4FA281B38132
:100720008C91948121E001C0220F9A95EAF7822BE7
:100730008C9308950F931F93CF9309E710E0C0E0C7
:10074000D801ED91FD91808112962C9141E001C07C
:10075000440F2A95EAF7842B80838C2FD7DFCF5F55
:100760000B5F1F4FC83061F7CF911F910F91089514
:10077000F8941FBC1EBC1DBC1CBC8FE99FE09BBD38
:100780008ABD89B7806189BF89E08EBD789408955C
:100790001F921FB61F9211248F939F93AF93BF9305
:1007A0008091AB009091AC00A091AD00B091AE00F3
:1007B0000196A11DB11D8093AB009093AC00A09356
:1007C000AD00B093AE00BF91AF919F918F911F90FC
:1007D0001FBE1F9018952FB7F8946091AB007091D1
:1007E000AC008091AD009091AE002FBF08951AB873
:1007F0001BB810BC8CE089B986E880BD88E18AB955
:1008000008955D9BFECF8CB90895CF93DF93EC01E3
:10081000FE018491811103C0DF91CF91089521964B
:10082000F0DFF6CFF894FFCFD1CEA9CE22CFEACE1B
:0E08300020CF02CFD3CED5CE16CFD8CEDDCE80
:10083E000600000700000100000200000300000493
:10084E000000050000010032003A003B00043A00AF
:10085E003B00033A003B000234003500063A003BF1
:10086E00000037003800003700380001370038002C
:02087E00020076
:00000001FF
