:10000000E4C0FEC0FDC0FCC0FBC0FAC059C2F8C0CD
:10001000F7C0F6C0F5C0F4C0F3C0F2C0F1C0F0C044
:10002000EFC0EEC0EDC0ECC0EBC00A0D416C6C201F
:1000300072656C617973207475726E6564206F6689
:10004000662E000A0D52656C6179206368616E67E7
:10005000656420746F3A20000A0D52656C61792046
:100060006368616E67656420746F3A20000A0D2A28
:100070002A2A2A2A2A2A2A2A2A2A2A2A2A2A2A2AE0
:100080002A2A2A2A2A2A2A2A2A2A2A2A2A2A2A2AD0
:100090002A2A2A2A2A2A2A2A2A2A2A2A2A2A2A2AC0
:1000A0002A2A2A0A0D000A0D2020202020202020A4
:1000B000204C65616B204465746563746F722069C0
:1000C0007320737461727465642E20562E302E3145
:1000D0002E30202020202020202020202020202002
:1000E000000A0D0A0D2A2A2A2A2A2A2A2A2A2A2A14
:1000F0002A2A2A2A2A2A2A2A2A2A2A2A2A2A2A2A60
:100100002A2A2A2A2A2A2A2A2A2A2A2A2A2A2A2A4F
:100110002A2A2A2A2A2A2A2A2A000A0D372D74680E
:100120002073656E736F72206973206163746976E2
:10013000652E000A0D362D74682073656E736F721C
:10014000206973206163746976652E000A0D352D70
:1001500074682073656E736F7220697320616374B5
:100160006976652E000A0D342D74682073656E73F0
:100170006F72206973206163746976652E000A0DC1
:10018000332D72642073656E736F72206973206102
:1001900063746976652E000A0D322D6E64207365D6
:1001A0006E736F72206973206163746976652E00C7
:1001B0000A0D312D73742073656E736F722069732D
:1001C000206163746976652E000011241FBECFE59F
:1001D000D2E0DEBFCDBF10E0A0E6B0E0E6E1F6E0A1
:1001E00002C005900D92AC39B107D9F720E0ACE917
:1001F000B0E001C01D92A73AB207E1F769D009C289
:10020000FFCE14BA8FEF85BB81B38F6381BB82B3FE
:1002100082BB089521E030E0A90101C0440F8A9516
:10022000EAF7842F342F20B3282311F080E00895BB
:10023000EFE0F7E23197F1F700C0000090B38923B7
:10024000A9F780B38323E9F38FE097E20197F1F7F1
:1002500000C0000081E008951BBA1ABA0895F8940E
:10026000FBDF5DD115BE1BBE19BE1AC1CF93DF9354
:10027000EC01888180FD03C080EB91E05ED1888134
:1002800081FD03C087E991E058D1888182FD03C0D8
:100290008EE791E052D1888183FD03C085E691E02D
:1002A0004CD1888184FD03C08CE491E046D18881E3
:1002B00085FD03C083E391E040D1888186FD05C0C0
:1002C0008AE191E0DF91CF9138C1DF91CF9108951C
:1002D000C6DF97DFB2D081EE90E02FD186EA90E0C2
:1002E0002CD18DE690E029D1789410929C00109248
:1002F0009D0080E0C9D014BA8FEF85BBC0E003D168
:1003000020919F003091A0004091A1005091A20047
:10031000621B730B840B950B683C7105810591057D
:1003200060F0F1D060939F007093A0008093A100D3
:100330009093A20083E390E099DF86E06BDF811564
:10034000D9F0D0919C00D11117C0C13011F0D1E08B
:10035000DC0F8D2F99D088E590E0EFD04D2F50E045
:1003600060E070E081E002D181E080939C00109217
:100370009D0080939E00CD2F86E04CDF8115D9F043
:10038000D0919C00D11117C0C13011F0D1E0DC0F29
:100390008D2F7AD083E490E0D0D04D2F50E060E0F4
:1003A00070E081E0E3D081E080939C0010929D009A
:1003B00080939E00CD2F87E02DDF811509F49FCF1C
:1003C00080919D0081119BCF8C2F23D08AE290E0F9
:1003D000B4D010929C0081E080939D0010929E000A
:1003E00085B3805885BB8BCF883090F495E0899F8A
:1003F000F0011124E05AFF4FA281B3812C91348186
:1004000081E001C0880F3A95EAF7809582238C93AA
:100410000895883088F495E0899FF0011124E05A0E
:10042000FF4FA281B3818C91948121E001C0220F02
:100430009A95EAF7822B8C9308950F931F93CF938D
:1004400000E610E0C0E0D801ED91FD9180811296A8
:100450002C9141E001C0440F2A95EAF7842B808358
:100460008C2FD7DFCF5F0B5F1F4FC83061F7CF9165
:100470001F910F910895CF93C0E08C2FCADFCF5FFB
:10048000C830D9F7CF910895CF93DF930F92CDB7AE
:10049000DEB78983F0DF89810F90DF91CF91A4CF00
:1004A000F8941FBC1EBC1DBC1CBC8FE99FE09BBD0B
:1004B0008ABD89B7806189BF89E08EBD789408952F
:1004C0001F921FB61F9211248F939F93AF93BF93D8
:1004D0008091A3009091A400A091A500B091A600E6
:1004E0000196A11DB11D8093A3009093A400A09339
:1004F000A500B093A600BF91AF919F918F911F90DF
:100500001FBE1F9018952FB7F8946091A3007091AB
:10051000A4008091A5009091A6002FBF08951AB85D
:100520001BB810BC8CE089B986E880BD88E18AB927
:1005300008955D9BFECF8CB90895CF93DF93EC01B6
:10054000FE018491811103C0DF91CF91089521961E
:10055000F0DFF6CFCF93DF93EC018881811103C0E8
:10056000DF91CF9108952196E4DFF7CFCF93DF930A
:10057000CDB7DEB72B970FB6F894DEBF0FBECDBF59
:100580009BE0EDE8F0E0DE01119601900D929A9566
:10059000E1F781508330D8F4E82FF0E0E856FF4FC0
:1005A000908121E0290F2130E9F49E5FFE01319610
:1005B000E90FF11D1082CE010196CCDF2B960FB60C
:1005C000F894DEBF0FBECDBFDF91CF91089588E8CC
:1005D00090E02B960FB6F894DEBF0FBECDBFDF9133
:1005E000CF91B8CF842F8F70E22FF0E08A3078F46B
:1005F000805DDE011196EA0FFB1F808384E0769513
:100600006795579547958A95D1F72150CCCF895C4E
:06061000F0CFF894FFCFCB
:100616003A003B00043A003B00033A003B00023438
:10062600003500063A003B0000370038000037006E
:1006360038000137003800024845583F003078201E
:0C064600202020202020200002040800BA
:00000001FF
